{
  "_format": "hh-sol-artifact-1",
  "contractName": "BulkSender",
  "sourceName": "contracts/BulkSender.sol",
  "abi": [
    {
      "inputs": [
        {
          "internalType": "address",
          "name": "_receiverAddress",
          "type": "address"
        }
      ],
      "stateMutability": "nonpayable",
      "type": "constructor"
    },
    {
      "inputs": [],
      "name": "AlreadyContract",
      "type": "error"
    },
    {
      "inputs": [],
      "name": "AlreadyNormalAddress",
      "type": "error"
    },
    {
      "inputs": [],
      "name": "AlreadyOwner",
      "type": "error"
    },
    {
      "inputs": [],
      "name": "AlreadyToken",
      "type": "error"
    },
    {
      "inputs": [],
      "name": "AlreadyVIP",
      "type": "error"
    },
    {
      "inputs": [
        {
          "internalType": "address",
          "name": "token",
          "type": "address"
        },
        {
          "internalType": "uint256",
          "name": "available",
          "type": "uint256"
        },
        {
          "internalType": "uint256",
          "name": "required",
          "type": "uint256"
        }
      ],
      "name": "InsufficientAllowance",
      "type": "error"
    },
    {
      "inputs": [
        {
          "internalType": "uint256",
          "name": "available",
          "type": "uint256"
        },
        {
          "internalType": "uint256",
          "name": "required",
          "type": "uint256"
        }
      ],
      "name": "InsufficientFunds",
      "type": "error"
    },
    {
      "inputs": [],
      "name": "InvalidInput",
      "type": "error"
    },
    {
      "inputs": [],
      "name": "NotAllowedAccount",
      "type": "error"
    },
    {
      "inputs": [],
      "name": "NotContract",
      "type": "error"
    },
    {
      "inputs": [
        {
          "internalType": "uint256",
          "name": "available",
          "type": "uint256"
        },
        {
          "internalType": "uint256",
          "name": "required",
          "type": "uint256"
        }
      ],
      "name": "NotEnoughEther",
      "type": "error"
    },
    {
      "inputs": [
        {
          "internalType": "uint256",
          "name": "available",
          "type": "uint256"
        },
        {
          "internalType": "uint256",
          "name": "required",
          "type": "uint256"
        }
      ],
      "name": "NotEnoughTokens",
      "type": "error"
    },
    {
      "inputs": [],
      "name": "NotNormalAddress",
      "type": "error"
    },
    {
      "inputs": [],
      "name": "NotOwner",
      "type": "error"
    },
    {
      "inputs": [],
      "name": "NotToken",
      "type": "error"
    },
    {
      "inputs": [],
      "name": "NotVIP",
      "type": "error"
    },
    {
      "inputs": [
        {
          "internalType": "address",
          "name": "owner",
          "type": "address"
        }
      ],
      "name": "OwnableInvalidOwner",
      "type": "error"
    },
    {
      "inputs": [
        {
          "internalType": "address",
          "name": "account",
          "type": "address"
        }
      ],
      "name": "OwnableUnauthorizedAccount",
      "type": "error"
    },
    {
      "inputs": [],
      "name": "Unauthorized",
      "type": "error"
    },
    {
      "inputs": [],
      "name": "ZeroAddress",
      "type": "error"
    },
    {
      "anonymous": false,
      "inputs": [
        {
          "indexed": false,
          "internalType": "address",
          "name": "token",
          "type": "address"
        },
        {
          "indexed": false,
          "internalType": "uint256",
          "name": "total",
          "type": "uint256"
        }
      ],
      "name": "LogBulkSent",
      "type": "event"
    },
    {
      "anonymous": false,
      "inputs": [
        {
          "indexed": false,
          "internalType": "address",
          "name": "token",
          "type": "address"
        },
        {
          "indexed": false,
          "internalType": "address",
          "name": "receiver",
          "type": "address"
        },
        {
          "indexed": false,
          "internalType": "uint256",
          "name": "balance",
          "type": "uint256"
        }
      ],
      "name": "LogGetToken",
      "type": "event"
    },
    {
      "anonymous": false,
      "inputs": [
        {
          "indexed": false,
          "internalType": "address",
          "name": "token",
          "type": "address"
        },
        {
          "indexed": false,
          "internalType": "uint256",
          "name": "total",
          "type": "uint256"
        }
      ],
      "name": "LogTokenBulkSent",
      "type": "event"
    },
    {
      "anonymous": false,
      "inputs": [
        {
          "indexed": false,
          "internalType": "address",
          "name": "sender",
          "type": "address"
        },
        {
          "indexed": false,
          "internalType": "uint256",
          "name": "value",
          "type": "uint256"
        }
      ],
      "name": "LogViPRegistered",
      "type": "event"
    },
    {
      "anonymous": false,
      "inputs": [
        {
          "indexed": true,
          "internalType": "address",
          "name": "previousOwner",
          "type": "address"
        },
        {
          "indexed": true,
          "internalType": "address",
          "name": "newOwner",
          "type": "address"
        }
      ],
      "name": "OwnershipTransferred",
      "type": "event"
    },
    {
      "inputs": [],
      "name": "VIPFee",
      "outputs": [
        {
          "internalType": "uint256",
          "name": "",
          "type": "uint256"
        }
      ],
      "stateMutability": "view",
      "type": "function"
    },
    {
      "inputs": [
        {
          "internalType": "address[]",
          "name": "_receivers",
          "type": "address[]"
        },
        {
          "internalType": "uint256[]",
          "name": "_values",
          "type": "uint256[]"
        }
      ],
      "name": "bulkTransfer",
      "outputs": [],
      "stateMutability": "payable",
      "type": "function"
    },
    {
      "inputs": [
        {
          "internalType": "address",
          "name": "_tokenAddress",
          "type": "address"
        },
        {
          "internalType": "address[]",
          "name": "_receivers",
          "type": "address[]"
        },
        {
          "internalType": "uint256[]",
          "name": "_tokenIds",
          "type": "uint256[]"
        },
        {
          "internalType": "uint256[]",
          "name": "_values",
          "type": "uint256[]"
        }
      ],
      "name": "bulkTransferERC1155",
      "outputs": [],
      "stateMutability": "payable",
      "type": "function"
    },
    {
      "inputs": [
        {
          "internalType": "address",
          "name": "_tokenAddress",
          "type": "address"
        },
        {
          "internalType": "address[]",
          "name": "_receivers",
          "type": "address[]"
        },
        {
          "internalType": "uint256[]",
          "name": "_values",
          "type": "uint256[]"
        }
      ],
      "name": "bulkTransferERC20",
      "outputs": [],
      "stateMutability": "payable",
      "type": "function"
    },
    {
      "inputs": [
        {
          "internalType": "address",
          "name": "_tokenAddress",
          "type": "address"
        },
        {
          "internalType": "address[]",
          "name": "_receivers",
          "type": "address[]"
        },
        {
          "internalType": "uint256",
          "name": "_value",
          "type": "uint256"
        }
      ],
      "name": "bulkTransferERC20",
      "outputs": [],
      "stateMutability": "payable",
      "type": "function"
    },
    {
      "inputs": [
        {
          "internalType": "address",
          "name": "_tokenAddress",
          "type": "address"
        },
        {
          "internalType": "address[]",
          "name": "_receivers",
          "type": "address[]"
        },
        {
          "internalType": "uint256[]",
          "name": "_tokenIds",
          "type": "uint256[]"
        }
      ],
      "name": "bulkTransferERC721",
      "outputs": [],
      "stateMutability": "payable",
      "type": "function"
    },
    {
      "inputs": [
        {
          "internalType": "address",
          "name": "_addr",
          "type": "address"
        }
      ],
      "name": "isVIP",
      "outputs": [
        {
          "internalType": "bool",
          "name": "",
          "type": "bool"
        }
      ],
      "stateMutability": "view",
      "type": "function"
    },
    {
      "inputs": [],
      "name": "owner",
      "outputs": [
        {
          "internalType": "address",
          "name": "",
          "type": "address"
        }
      ],
      "stateMutability": "view",
      "type": "function"
    },
    {
      "inputs": [],
      "name": "receiverAddress",
      "outputs": [
        {
          "internalType": "address",
          "name": "",
          "type": "address"
        }
      ],
      "stateMutability": "view",
      "type": "function"
    },
    {
      "inputs": [],
      "name": "registerVIP",
      "outputs": [],
      "stateMutability": "payable",
      "type": "function"
    },
    {
      "inputs": [
        {
          "internalType": "address[]",
          "name": "_vipList",
          "type": "address[]"
        }
      ],
      "name": "removeFromVIPList",
      "outputs": [],
      "stateMutability": "nonpayable",
      "type": "function"
    },
    {
      "inputs": [],
      "name": "renounceOwnership",
      "outputs": [],
      "stateMutability": "nonpayable",
      "type": "function"
    },
    {
      "inputs": [
        {
          "internalType": "address",
          "name": "_addr",
          "type": "address"
        }
      ],
      "name": "setReceiverAddress",
      "outputs": [],
      "stateMutability": "nonpayable",
      "type": "function"
    },
    {
      "inputs": [
        {
          "internalType": "uint256",
          "name": "_fee",
          "type": "uint256"
        }
      ],
      "name": "setTxFee",
      "outputs": [],
      "stateMutability": "nonpayable",
      "type": "function"
    },
    {
      "inputs": [
        {
          "internalType": "uint256",
          "name": "_fee",
          "type": "uint256"
        }
      ],
      "name": "setVIPFee",
      "outputs": [],
      "stateMutability": "nonpayable",
      "type": "function"
    },
    {
      "inputs": [
        {
          "internalType": "address",
          "name": "newOwner",
          "type": "address"
        }
      ],
      "name": "transferOwnership",
      "outputs": [],
      "stateMutability": "nonpayable",
      "type": "function"
    },
    {
      "inputs": [],
      "name": "txFee",
      "outputs": [
        {
          "internalType": "uint256",
          "name": "",
          "type": "uint256"
        }
      ],
      "stateMutability": "view",
      "type": "function"
    }
  ],
  "bytecode": "0x60806040523461002a576100196100146100c2565b610164565b6040516112e061028682396112e090f35b600080fd5b634e487b7160e01b600052604160045260246000fd5b90601f01601f191681019081106001600160401b0382111761006657604052565b61002f565b9061007f61007860405190565b9283610045565b565b6001600160a01b031690565b90565b6001600160a01b0381160361002a57565b9050519061007f82610090565b9060208282031261002a5761008d916100a1565b61008d611566803803806100d58161006b565b9283398101906100ae565b90600019905b9181191691161790565b61008d61008d61008d9290565b9061010d61008d610114926100f0565b82546100e0565b9055565b906001600160a01b03906100e6565b61008d90610081906001600160a01b031682565b61008d90610127565b61008d9061013b565b9061015d61008d61011492610144565b8254610118565b61007f906101713361019d565b6101836618de76816d800060026100fd565b61019667016345785d8a000060036100fd565b600161014d565b61007f906101cf565b61008161008d61008d9290565b61008d906101a6565b6001600160a01b03909116815260200190565b60006101da816101b3565b6001600160a01b0381166001600160a01b038416146101fe57505061007f9061022e565b631e4fbdf760e01b8252819061021790600483016101bc565b0390fd5b61008d90610081565b61008d905461021b565b61025461024e61023e6000610224565b61024984600061014d565b610144565b91610144565b907f8be0079c531659141344cd1fd0a4f28419497f9722a3daafe3b4186f6b6457e061027f60405190565b600090a356fe6080604052600436101561001257600080fd5b60003560e01c8063153a1f3e1461012257806316fed3e21461011d5780633d06242a146101185780633e46cd5314610113578063627d1e501461010e578063715018a6146101095780638164ad0e146101045780638279c7db146100ff5780638ce632e8146100fa5780638da5cb5b146100f55780639c1f6133146100f0578063cf820461146100eb578063f05d16f7146100e6578063f0a0a299146100e1578063f2fde38b146100dc578063f4201c3c146100d75763f48d11af0361015757610581565b61052e565b610516565b6104fb565b6104d7565b6104ac565b610477565b61045c565b610445565b6103e8565b6103bd565b6103a5565b61038b565b6102f8565b610274565b610223565b6101aa565b909182601f830112156101575781359167ffffffffffffffff831161015757602001926020830284011161015757565b600080fd5b909160408284031261015757813567ffffffffffffffff81116101575783610185918401610127565b929093602082013567ffffffffffffffff8111610157576101a69201610127565b9091565b6101c16101b836600461015c565b92919091610801565b604051005b0390f35b600091031261015757565b6101ea916008021c5b6001600160a01b031690565b90565b906101ea91546101d5565b6101ea600060016101ed565b61020d906101de565b9052565b6020810192916102219190610204565b565b34610157576102333660046101ca565b6101c661023e6101f8565b60405191829182610211565b805b0361015757565b905035906102218261024a565b90602082820312610157576101ea91610253565b34610157576101c1610287366004610260565b610854565b61024c816101de565b905035906102218261028c565b606081830312610157576102b68282610295565b92602082013567ffffffffffffffff811161015757836102d7918401610127565b929093604082013567ffffffffffffffff8111610157576101a69201610127565b6101c16103063660046102a2565b93929092610a80565b919091608081840312610157576103268382610295565b92602082013567ffffffffffffffff81116101575781610347918401610127565b929093604082013567ffffffffffffffff8111610157578361036a918401610127565b929093606082013567ffffffffffffffff8111610157576101a69201610127565b6101c161039936600461030f565b95949094939193610c99565b34610157576103b53660046101ca565b6101c1610cc5565b6101c16103cb3660046102a2565b93929092610e17565b90602082820312610157576101ea91610295565b34610157576101c16103fb3660046103d4565b610e92565b90606082820312610157576104158183610295565b92602083013567ffffffffffffffff8111610157578261043c6040946101ea938701610127565b94909501610253565b6101c1610453366004610400565b92919091610fcb565b346101575761046c3660046101ca565b6101c661023e610fd7565b6104823660046101ca565b6101c1611066565b6101ea916008021c81565b906101ea915461048a565b6101ea60006002610495565b34610157576104bc3660046101ca565b6101c66104c76104a0565b6040519182918290815260200190565b34610157576101c16104ea366004610260565b611131565b6101ea60006003610495565b346101575761050b3660046101ca565b6101c66104c76104ef565b34610157576101c16105293660046103d4565b611190565b34610157576101c66105496105443660046103d4565b6111a0565b60405191829182901515815260200190565b9060208282031261015757813567ffffffffffffffff8111610157576101a69201610127565b34610157576101c161059436600461055b565b90611211565b6101ea9081565b6101ea905461059a565b156105b257565b6332eaa48760e11b6000908152600490fd5b036000fd5b6101ea906101de565b6101ea90546105c9565b6101ea906101de906001600160a01b031682565b6101ea906105dc565b6101ea906105f0565b6040513d6000823e3d90fd5b92919061061a336111a0565b8015610689575b61062a906105ab565b61063a610636336111a0565b1590565b610648575b6102219361073e565b600080808061066261065d61065d60016105d2565b6105f9565b61066c60026105a1565b90828215610680575bf161063f575b610602565b506108fc610675565b5061062a61069a6101ea60026105a1565b3410159050610621565b156106ab57565b63b4fa3fb360e01b6000908152600490fd5b6101ea6101ea6101ea9290565b634e487b7160e01b600052603260045260246000fd5b91908110156106f0576020020190565b6106ca565b356101ea8161028c565b356101ea8161024a565b6101de6101ea6101ea9290565b6101ea90610709565b91602061022192949361073a60408201966000830190610204565b0152565b939290809461074f83875b146106a4565b60009461075b866106bd565b878110156107b6578680808089610796610791878c61078b61065d61065d8f8f6107869187916106e0565b6106f5565b946106e0565b6106ff565b908282156107ad575bf11561067b5760010161075b565b506108fc61079f565b509593505050506107e77f36999034604ec5cfa877989dff72a3777cb0c30d884b5fa522359d084b1c53f692610716565b6107fc6107f360405190565b9283928361071f565b0390a1565b9061022193929161060e565b6102219061081961121b565b610849565b90600019905b9181191691161790565b9061083e6101ea610845926106bd565b825461081e565b9055565b61022190600361082e565b6102219061080d565b9392919061086a336111a0565b80156108cf575b61087a906105ab565b610886610636336111a0565b610894575b6102219461097a565b60008080806108a961065d61065d60016105d2565b6108b360026105a1565b908282156108c6575bf161088b57610602565b506108fc6108bc565b5061087a6108e06101ea60026105a1565b3410159050610871565b634e487b7160e01b600052604160045260246000fd5b90601f01601f1916810190811067ffffffffffffffff82111761092257604052565b6108ea565b80151561024c565b9050519061022182610927565b90602082820312610157576101ea9161092f565b60409061073a610221949695939661097060608401986000850190610204565b6020830190610204565b93909291809561098a8388610749565b610993866105f9565b906000976109a160006106bd565b81811015610a49578060208b8a8a6109d3610791868d61078b6107868f9b8f9c6109cd6109fd9e6105f9565b996106e0565b926109dd60405190565b8097819582946109f16323b872dd60e01b90565b84523360048501610950565b03925af191821561067b57610a1892610a1d575b5060010190565b6109a1565b610a3d9060203d8111610a42575b610a358183610900565b81019061093c565b610a11565b503d610a2b565b5095509650505050507fe4e3577249108daaa0a07e6d9aabc5fef8e89ec09da3f9dccfe7ef215e4efc12916107fc6107f360405190565b906102219493929161085d565b959493929190610a9c336111a0565b8015610b01575b610aac906105ab565b610ab8610636336111a0565b610ac6575b61022196610b69565b6000808080610adb61065d61065d60016105d2565b610ae560026105a1565b90828215610af8575bf1610abd57610602565b506108fc610aee565b50610aac610b126101ea60026105a1565b3410159050610aa3565b9193610b50610b579294610b496101ea97610b3f60a08801986000890190610204565b6020870190610204565b6040850152565b6060830152565b60808183039101526000815260200190565b949694959293909291809582871480610c90575b610b86906106a4565b610b8f886105f9565b90600097610b9d60006106bd565b81811015610c5757808989610bd98f94808c610bd3610791838f8f8f610791986109cd92610bcd610786936105f9565b9c6106e0565b976106e0565b90803b1561015757610c0c948e8094610bf160405190565b97889586948593637921219560e11b85523360048601610b1c565b03925af191821561067b57610c2692610c2b575060010190565b610b9d565b610c4a908c8d3d10610c50575b610c428183610900565b8101906101ca565b38610a11565b503d610c38565b50975098505050505050507fe4e3577249108daaa0a07e6d9aabc5fef8e89ec09da3f9dccfe7ef215e4efc12916107fc6107f360405190565b50868414610b7d565b90610221969594939291610a8d565b610cb061121b565b610221610221610cc06000610716565b611258565b610221610ca8565b93929190610cda336111a0565b8015610d3f575b610cea906105ab565b610cf6610636336111a0565b610d04575b61022194610d5a565b6000808080610d1961065d61065d60016105d2565b610d2360026105a1565b90828215610d36575bf1610cfb57610602565b506108fc610d2c565b50610cea610d506101ea60026105a1565b3410159050610ce1565b9390949291610d668190565b93610d718386610749565b610d7a866105f9565b90600095610d8860006106bd565b81811015610a495780610da96107868c9388610da3896105f9565b956106e0565b610db7610791838a8c6106e0565b833b1561015757610de2938b9283610dce60405190565b8097819582946109f16342842e0e60e01b90565b03925af191821561067b57610dfc92610e01575060010190565b610d88565b610c4a908a3d8c11610c5057610c428183610900565b9061022194939291610ccd565b61022190610e3061121b565b610e62565b1561015757565b906001600160a01b0390610824565b90610e5b6101ea610845926105f9565b8254610e3c565b61022190610e8b610e7b610e766000610716565b6101de565b610e84836101de565b1415610e35565b6001610e4b565b61022190610e24565b929190610ea7336111a0565b8015610f0c575b610eb7906105ab565b610ec3610636336111a0565b610ed1575b61022193610f27565b6000808080610ee661065d61065d60016105d2565b610ef060026105a1565b90828215610f03575bf1610ec857610602565b506108fc610ef9565b50610eb7610f1d6101ea60026105a1565b3410159050610eae565b9291610f32846105f9565b600095610f3f60006106bd565b83811015610f8e57610f6f90602087610f57866105f9565b610f65610786858a8c6106e0565b8c6109dd60405190565b03925af191821561067b57610f8992610a1d575060010190565b610f3f565b509550507fe4e3577249108daaa0a07e6d9aabc5fef8e89ec09da3f9dccfe7ef215e4efc12939250610fbe915090565b906107fc6107f360405190565b90610221939291610e9b565b6101ea60006105d2565b9081526040810192916102219160200152565b15610ffd575050565b62fae2d560e21b6000908152916105c4916004610fe1565b1561101c57565b63024b964d60e01b6000908152600490fd5b90611038906105f9565b600052602052604060002090565b9060ff90610824565b9061105f6101ea61084592151590565b8254611046565b61108b6110766101ea60036105a1565b34101561108360036105a1565b903490610ff4565b61109f61109a610636336111a0565b611015565b60008080806110b461065d61065d60016105d2565b81903415611110575b3491f11561067b576110da60016110d533600461102e565b61104f565b7f6252330b8ac495908d7082dbcf6cd547affff5896884e8cb9c40d1b216f9f8e861110460405190565b806107fc34338361071f565b6108fc91506110bd565b6102219061112661121b565b61022190600261082e565b6102219061111a565b6102219061114661121b565b600061115181610716565b61115a816101de565b611163846101de565b1461117357505061022190611258565b631e4fbdf760e01b8252819061118c9060048301610211565b0390fd5b6102219061113a565b5460ff1690565b6111b76101ea916111af600090565b50600461102e565b611199565b90610221916111c961121b565b600092916111d6846106bd565b8181101561120a57611205906111ff866110d560046111f961078686898b6106e0565b9061102e565b60010190565b6111d6565b5050509050565b90610221916111bc565b611223610fd7565b3390611237611231836101de565b916101de565b0361123f5750565b63118cdaa760e01b6000908152906105c4906004610211565b61127961127361126860006105d2565b61065d846000610e4b565b916105f9565b907f8be0079c531659141344cd1fd0a4f28419497f9722a3daafe3b4186f6b6457e06112a460405190565b600090a356fea2646970667358221220ea5e13c130db9b5d929c2c889b7673c92e4701ef66aa625f95e5dcff8eec256564736f6c634300081a0033",
  "linkReferences": {},
  "deployedLinkReferences": {}
}