{
  "_format": "hh-sol-artifact-1",
  "contractName": "BulkSender",
  "sourceName": "contracts/BulkSender.sol",
  "abi": [
    {
      "inputs": [],
      "stateMutability": "nonpayable",
      "type": "constructor"
    },
    {
      "inputs": [],
      "name": "AlreadyContract",
      "type": "error"
    },
    {
      "inputs": [],
      "name": "AlreadyNormalAddress",
      "type": "error"
    },
    {
      "inputs": [],
      "name": "AlreadyOwner",
      "type": "error"
    },
    {
      "inputs": [],
      "name": "AlreadyToken",
      "type": "error"
    },
    {
      "inputs": [],
      "name": "AlreadyVIP",
      "type": "error"
    },
    {
      "inputs": [
        {
          "internalType": "address",
          "name": "token",
          "type": "address"
        },
        {
          "internalType": "uint256",
          "name": "available",
          "type": "uint256"
        },
        {
          "internalType": "uint256",
          "name": "required",
          "type": "uint256"
        }
      ],
      "name": "InsufficientAllowance",
      "type": "error"
    },
    {
      "inputs": [
        {
          "internalType": "uint256",
          "name": "available",
          "type": "uint256"
        },
        {
          "internalType": "uint256",
          "name": "required",
          "type": "uint256"
        }
      ],
      "name": "InsufficientFunds",
      "type": "error"
    },
    {
      "inputs": [],
      "name": "InvalidInitialization",
      "type": "error"
    },
    {
      "inputs": [],
      "name": "InvalidInput",
      "type": "error"
    },
    {
      "inputs": [],
      "name": "NotAllowedAccount",
      "type": "error"
    },
    {
      "inputs": [],
      "name": "NotContract",
      "type": "error"
    },
    {
      "inputs": [
        {
          "internalType": "uint256",
          "name": "available",
          "type": "uint256"
        },
        {
          "internalType": "uint256",
          "name": "required",
          "type": "uint256"
        }
      ],
      "name": "NotEnoughEther",
      "type": "error"
    },
    {
      "inputs": [
        {
          "internalType": "uint256",
          "name": "available",
          "type": "uint256"
        },
        {
          "internalType": "uint256",
          "name": "required",
          "type": "uint256"
        }
      ],
      "name": "NotEnoughTokens",
      "type": "error"
    },
    {
      "inputs": [],
      "name": "NotInitializing",
      "type": "error"
    },
    {
      "inputs": [],
      "name": "NotNormalAddress",
      "type": "error"
    },
    {
      "inputs": [],
      "name": "NotOwner",
      "type": "error"
    },
    {
      "inputs": [],
      "name": "NotToken",
      "type": "error"
    },
    {
      "inputs": [],
      "name": "NotVIP",
      "type": "error"
    },
    {
      "inputs": [
        {
          "internalType": "address",
          "name": "owner",
          "type": "address"
        }
      ],
      "name": "OwnableInvalidOwner",
      "type": "error"
    },
    {
      "inputs": [
        {
          "internalType": "address",
          "name": "account",
          "type": "address"
        }
      ],
      "name": "OwnableUnauthorizedAccount",
      "type": "error"
    },
    {
      "inputs": [],
      "name": "Unauthorized",
      "type": "error"
    },
    {
      "inputs": [],
      "name": "ZeroAddress",
      "type": "error"
    },
    {
      "anonymous": false,
      "inputs": [
        {
          "indexed": false,
          "internalType": "uint64",
          "name": "version",
          "type": "uint64"
        }
      ],
      "name": "Initialized",
      "type": "event"
    },
    {
      "anonymous": false,
      "inputs": [
        {
          "indexed": false,
          "internalType": "address",
          "name": "token",
          "type": "address"
        },
        {
          "indexed": false,
          "internalType": "uint256",
          "name": "total",
          "type": "uint256"
        }
      ],
      "name": "LogBulkSent",
      "type": "event"
    },
    {
      "anonymous": false,
      "inputs": [
        {
          "indexed": false,
          "internalType": "address",
          "name": "token",
          "type": "address"
        },
        {
          "indexed": false,
          "internalType": "address",
          "name": "receiver",
          "type": "address"
        },
        {
          "indexed": false,
          "internalType": "uint256",
          "name": "balance",
          "type": "uint256"
        }
      ],
      "name": "LogGetToken",
      "type": "event"
    },
    {
      "anonymous": false,
      "inputs": [
        {
          "indexed": false,
          "internalType": "address",
          "name": "token",
          "type": "address"
        },
        {
          "indexed": false,
          "internalType": "uint256",
          "name": "total",
          "type": "uint256"
        }
      ],
      "name": "LogTokenBulkSent",
      "type": "event"
    },
    {
      "anonymous": false,
      "inputs": [
        {
          "indexed": false,
          "internalType": "address",
          "name": "sender",
          "type": "address"
        },
        {
          "indexed": false,
          "internalType": "uint256",
          "name": "value",
          "type": "uint256"
        }
      ],
      "name": "LogViPRegistered",
      "type": "event"
    },
    {
      "anonymous": false,
      "inputs": [
        {
          "indexed": true,
          "internalType": "address",
          "name": "previousOwner",
          "type": "address"
        },
        {
          "indexed": true,
          "internalType": "address",
          "name": "newOwner",
          "type": "address"
        }
      ],
      "name": "OwnershipTransferred",
      "type": "event"
    },
    {
      "inputs": [
        {
          "internalType": "address[]",
          "name": "_receivers",
          "type": "address[]"
        },
        {
          "internalType": "uint256[]",
          "name": "_values",
          "type": "uint256[]"
        }
      ],
      "name": "bulkTransfer",
      "outputs": [],
      "stateMutability": "payable",
      "type": "function"
    },
    {
      "inputs": [
        {
          "internalType": "address",
          "name": "_tokenAddress",
          "type": "address"
        },
        {
          "internalType": "address[]",
          "name": "_receivers",
          "type": "address[]"
        },
        {
          "internalType": "uint256[]",
          "name": "_tokenIds",
          "type": "uint256[]"
        },
        {
          "internalType": "uint256[]",
          "name": "_values",
          "type": "uint256[]"
        }
      ],
      "name": "bulkTransferERC1155",
      "outputs": [],
      "stateMutability": "payable",
      "type": "function"
    },
    {
      "inputs": [
        {
          "internalType": "address",
          "name": "_tokenAddress",
          "type": "address"
        },
        {
          "internalType": "address[]",
          "name": "_receivers",
          "type": "address[]"
        },
        {
          "internalType": "uint256[]",
          "name": "_values",
          "type": "uint256[]"
        }
      ],
      "name": "bulkTransferERC20",
      "outputs": [],
      "stateMutability": "payable",
      "type": "function"
    },
    {
      "inputs": [
        {
          "internalType": "address",
          "name": "_tokenAddress",
          "type": "address"
        },
        {
          "internalType": "address[]",
          "name": "_receivers",
          "type": "address[]"
        },
        {
          "internalType": "uint256",
          "name": "_value",
          "type": "uint256"
        }
      ],
      "name": "bulkTransferERC20",
      "outputs": [],
      "stateMutability": "payable",
      "type": "function"
    },
    {
      "inputs": [
        {
          "internalType": "address",
          "name": "_tokenAddress",
          "type": "address"
        },
        {
          "internalType": "address[]",
          "name": "_receivers",
          "type": "address[]"
        },
        {
          "internalType": "uint256[]",
          "name": "_tokenIds",
          "type": "uint256[]"
        }
      ],
      "name": "bulkTransferERC721",
      "outputs": [],
      "stateMutability": "payable",
      "type": "function"
    },
    {
      "inputs": [
        {
          "internalType": "address",
          "name": "receiverAddress",
          "type": "address"
        }
      ],
      "name": "initialize",
      "outputs": [],
      "stateMutability": "nonpayable",
      "type": "function"
    },
    {
      "inputs": [
        {
          "internalType": "address",
          "name": "_addr",
          "type": "address"
        }
      ],
      "name": "isVIP",
      "outputs": [
        {
          "internalType": "bool",
          "name": "",
          "type": "bool"
        }
      ],
      "stateMutability": "view",
      "type": "function"
    },
    {
      "inputs": [],
      "name": "owner",
      "outputs": [
        {
          "internalType": "address",
          "name": "",
          "type": "address"
        }
      ],
      "stateMutability": "view",
      "type": "function"
    },
    {
      "inputs": [],
      "name": "receiverAddress",
      "outputs": [
        {
          "internalType": "address",
          "name": "",
          "type": "address"
        }
      ],
      "stateMutability": "view",
      "type": "function"
    },
    {
      "inputs": [],
      "name": "registerVIP",
      "outputs": [],
      "stateMutability": "payable",
      "type": "function"
    },
    {
      "inputs": [
        {
          "internalType": "address[]",
          "name": "_vipList",
          "type": "address[]"
        }
      ],
      "name": "removeFromVIPList",
      "outputs": [],
      "stateMutability": "nonpayable",
      "type": "function"
    },
    {
      "inputs": [],
      "name": "renounceOwnership",
      "outputs": [],
      "stateMutability": "nonpayable",
      "type": "function"
    },
    {
      "inputs": [
        {
          "internalType": "address",
          "name": "_addr",
          "type": "address"
        }
      ],
      "name": "setReceiverAddress",
      "outputs": [],
      "stateMutability": "nonpayable",
      "type": "function"
    },
    {
      "inputs": [
        {
          "internalType": "uint256",
          "name": "_fee",
          "type": "uint256"
        }
      ],
      "name": "setTxFee",
      "outputs": [],
      "stateMutability": "nonpayable",
      "type": "function"
    },
    {
      "inputs": [
        {
          "internalType": "uint256",
          "name": "_fee",
          "type": "uint256"
        }
      ],
      "name": "setvipFee",
      "outputs": [],
      "stateMutability": "nonpayable",
      "type": "function"
    },
    {
      "inputs": [
        {
          "internalType": "address",
          "name": "newOwner",
          "type": "address"
        }
      ],
      "name": "transferOwnership",
      "outputs": [],
      "stateMutability": "nonpayable",
      "type": "function"
    },
    {
      "inputs": [],
      "name": "txFee",
      "outputs": [
        {
          "internalType": "uint256",
          "name": "",
          "type": "uint256"
        }
      ],
      "stateMutability": "view",
      "type": "function"
    },
    {
      "inputs": [],
      "name": "vipFee",
      "outputs": [
        {
          "internalType": "uint256",
          "name": "",
          "type": "uint256"
        }
      ],
      "stateMutability": "view",
      "type": "function"
    }
  ],
  "bytecode": "0x60806040523460195760405161173061001f823961173090f35b600080fdfe6080604052600436101561001257600080fd5b60003560e01c8063153a1f3e1461013257806316fed3e21461012d5780633e46cd5314610128578063627d1e5014610123578063715018a61461011e5780638164ad0e146101195780638279c7db146101145780638ce632e81461010f5780638da5cb5b1461010a5780639c1f613314610105578063ad0b0ddc14610100578063c4d66de8146100fb578063cf820461146100f6578063e1053f4e146100f1578063f05d16f7146100ec578063f2fde38b146100e7578063f4201c3c146100e25763f48d11af036101665761054c565b6104fa565b6104e2565b6104ca565b6104af565b610484565b61046c565b610454565b61042d565b610412565b6103fb565b61038c565b610361565b610349565b61032f565b61029f565b6101f7565b6101b7565b909182601f83011215610166578135916001600160401b03831161016657602001926020830284011161016657565b600080fd5b90916040828403126101665781356001600160401b0381116101665783610193918401610137565b92909360208201356001600160401b038111610166576101b39201610137565b9091565b6101ce6101c536600461016b565b929190916107db565b604051005b0390f35b600091031261016657565b6001600160a01b031690565b90565b9052565b565b34610166576102073660046101d7565b6101d36102126107e7565b604051918291826001600160a01b03909116815260200190565b6001600160a01b0381165b0361016657565b905035906101f58261022c565b6060818303126101665761025f828261023e565b9260208201356001600160401b038111610166578361027f918401610137565b92909360408201356001600160401b038111610166576101b39201610137565b6101ce6102ad36600461024b565b93929092610a3f565b919091608081840312610166576102cd838261023e565b9260208201356001600160401b03811161016657816102ed918401610137565b92909360408201356001600160401b038111610166578361030f918401610137565b92909360608201356001600160401b038111610166576101b39201610137565b6101ce61033d3660046102b6565b95949094939193610c6a565b34610166576103593660046101d7565b6101ce610c96565b6101ce61036f36600461024b565b93929092610e01565b90602082820312610166576101ee9161023e565b34610166576101ce61039f366004610378565b610e67565b80610237565b905035906101f5826103a4565b90606082820312610166576103cc818361023e565b9260208301356001600160401b03811161016657826103f26040946101ee938701610137565b949095016103aa565b6101ce6104093660046103b7565b92919091610fb9565b34610166576104223660046101d7565b6101d3610212610fc5565b6104383660046101d7565b6101ce611075565b90602082820312610166576101ee916103aa565b34610166576101ce610467366004610440565b6111ad565b34610166576101ce61047f366004610378565b611417565b34610166576104943660046101d7565b6101d361049f611420565b6040519182918290815260200190565b34610166576104bf3660046101d7565b6101d361049f61143b565b34610166576101ce6104dd366004610440565b61147a565b34610166576101ce6104f5366004610378565b6114db565b34610166576101d3610515610510366004610378565b6114f7565b60405191829182901515815260200190565b906020828203126101665781356001600160401b038111610166576101b39201610137565b34610166576101ce61055f366004610527565b90611599565b6101ee9081565b6101ee9054610565565b1561057d57565b6332eaa48760e11b6000908152600490fd5b036000fd5b6101ee906101e2906001600160a01b031682565b6101ee90610594565b6101ee906105a8565b6040513d6000823e3d90fd5b9291906000805160206116db8339815191526105e1336114f7565b8015610663575b6105f190610576565b6106016105fd336114f7565b1590565b610610575b506101f593610718565b6000808083610640600161063961063461063486809a01546001600160a01b031690565b6105b1565b920161056c565b9082821561065a575bf1156106555738610606565b6105ba565b506108fc610649565b506105f16106766101ee6001840161056c565b34101590506105e8565b1561068757565b63b4fa3fb360e01b6000908152600490fd5b6101ee6101ee6101ee9290565b634e487b7160e01b600052603260045260246000fd5b91908110156106cc576020020190565b6106a6565b356101ee8161022c565b356101ee816103a4565b6101e26101ee6101ee9290565b6101ee906106e5565b6001600160a01b0390911681526040810192916101f59160200152565b939290809461072983875b14610680565b60009461073586610699565b8781101561079057868080808961077061076b878c6107656106346106348f8f6107609187916106bc565b6106d1565b946106bc565b6106db565b90828215610787575bf11561065557600101610735565b506108fc610779565b509593505050506107c17f36999034604ec5cfa877989dff72a3777cb0c30d884b5fa522359d084b1c53f6926106f2565b6107d66107cd60405190565b928392836106fb565b0390a1565b906101f59392916105c6565b6101ee60006000805160206116db8339815191525b01546001600160a01b031690565b939291906000805160206116db833981519152610826336114f7565b8015610893575b61083690610576565b6108426105fd336114f7565b610851575b506101f594610939565b6000808083610875600161063961063461063486809a01546001600160a01b031690565b9082821561088a575bf1156106555738610847565b506108fc61087e565b506108366108a66101ee6001840161056c565b341015905061082d565b634e487b7160e01b600052604160045260246000fd5b90601f01601f191681019081106001600160401b038211176108e757604052565b6108b0565b801515610237565b905051906101f5826108ec565b90602082820312610166576101ee916108f4565b6001600160a01b039182168152911660208201526060810192916101f59160400152565b9390929180956109498388610723565b610952866105b1565b906000976109606000610699565b81811015610a08578060208b8a8a61099261076b868d6107656107608f9b8f9c61098c6109bc9e6105b1565b996106bc565b9261099c60405190565b8097819582946109b06323b872dd60e01b90565b84523360048501610915565b03925af1918215610655576109d7926109dc575b5060010190565b610960565b6109fc9060203d8111610a01575b6109f481836108c6565b810190610901565b6109d0565b503d6109ea565b5095509650505050507fe4e3577249108daaa0a07e6d9aabc5fef8e89ec09da3f9dccfe7ef215e4efc12916107d66107cd60405190565b906101f59493929161080a565b9594939291906000805160206116db833981519152610a6a336114f7565b8015610ad7575b610a7a90610576565b610a866105fd336114f7565b610a95575b506101f596610b3a565b6000808083610ab9600161063961063461063486809a01546001600160a01b031690565b90828215610ace575bf1156106555738610a8b565b506108fc610ac2565b50610a7a610aea6101ee6001840161056c565b3410159050610a71565b6001600160a01b039182168152911660208201526101ee9260a0820192610b289190610b21906040850152565b6060830152565b60808183039101526000815260200190565b949694959293909291809582871480610c61575b610b5790610680565b610b60886105b1565b90600097610b6e6000610699565b81811015610c2857808989610baa8f94808c610ba461076b838f8f8f61076b9861098c92610b9e610760936105b1565b9c6106bc565b976106bc565b90803b1561016657610bdd948e8094610bc260405190565b97889586948593637921219560e11b85523360048601610af4565b03925af191821561065557610bf792610bfc575060010190565b610b6e565b610c1b908c8d3d10610c21575b610c1381836108c6565b8101906101d7565b386109d0565b503d610c09565b50975098505050505050507fe4e3577249108daaa0a07e6d9aabc5fef8e89ec09da3f9dccfe7ef215e4efc12916107d66107cd60405190565b50868414610b4e565b906101f5969594939291610a4c565b610c816115a3565b6101f56101f5610c9160006106f2565b6115e2565b6101f5610c79565b939291906000805160206116db833981519152610cba336114f7565b8015610d27575b610cca90610576565b610cd66105fd336114f7565b610ce5575b506101f594610d44565b6000808083610d09600161063961063461063486809a01546001600160a01b031690565b90828215610d1e575bf1156106555738610cdb565b506108fc610d12565b50610cca610d3a6101ee6001840161056c565b3410159050610cc1565b9390949291610d508190565b93610d5b8386610723565b610d64866105b1565b90600095610d726000610699565b81811015610a085780610d936107608c9388610d8d896105b1565b956106bc565b610da161076b838a8c6106bc565b833b1561016657610dcc938b9283610db860405190565b8097819582946109b06342842e0e60e01b90565b03925af191821561065557610de692610deb575060010190565b610d72565b610c1b908a3d8c11610c2157610c1381836108c6565b906101f594939291610c9e565b6101f590610e1a6115a3565b610e4f565b906001600160a01b03905b9181191691161790565b90610e446101ee610e4b926105b1565b8254610e1f565b9055565b6101f5906000805160206116db833981519152610e34565b6101f590610e0e565b9291906000805160206116db833981519152610e8b336114f7565b8015610ef8575b610e9b90610576565b610ea76105fd336114f7565b610eb6575b506101f593610f15565b6000808083610eda600161063961063461063486809a01546001600160a01b031690565b90828215610eef575bf1156106555738610eac565b506108fc610ee3565b50610e9b610f0b6101ee6001840161056c565b3410159050610e92565b9291610f20846105b1565b600095610f2d6000610699565b83811015610f7c57610f5d90602087610f45866105b1565b610f53610760858a8c6106bc565b8c61099c60405190565b03925af191821561065557610f77926109dc575060010190565b610f2d565b509550507fe4e3577249108daaa0a07e6d9aabc5fef8e89ec09da3f9dccfe7ef215e4efc12939250610fac915090565b906107d66107cd60405190565b906101f5939291610e70565b6101ee60007f9016d09d72d40fdae2fd8ceac6b6234c7706214fd39c1cd1e609a0528c1993006107fc565b9081526040810192916101f59160200152565b1561100c575050565b62fae2d560e21b60009081529161058f916004610ff0565b1561102b57565b63024b964d60e01b6000908152600490fd5b90611047906105b1565b600052602052604060002090565b9060ff90610e2a565b9061106e6101ee610e4b92151590565b8254611055565b6000805160206116db8339815191526110c87fa9b8ea93cd1a4e28b0276278267515f30a34f7de34d3bc6de92b1e97a9a6b7026110c06110b76101ee8361056c565b3410159161056c565b903490611003565b6110dc6110d76105fd336114f7565b611024565b60008080806110f66106348087546001600160a01b031690565b81903415611155575b3491f11561065557600161111a600361111f9301339061103d565b61105e565b7f6252330b8ac495908d7082dbcf6cd547affff5896884e8cb9c40d1b216f9f8e861114960405190565b806107d63433836106fb565b6108fc91506110ff565b6101f59061116b6115a3565b611191565b9060001990610e2a565b9061118a6101ee610e4b92610699565b8254611170565b6101f59060026000805160206116db8339815191525b0161117a565b6101f59061115f565b6101ee9060401c5b60ff1690565b6101ee90546111b6565b6101ee905b6001600160401b031690565b6101ee90546111ce565b6111d36101ee6101ee9290565b906001600160401b0390610e2a565b6111d36101ee6101ee926001600160401b031690565b9061122b6101ee610e4b92611205565b82546111f6565b9068ff00000000000000009060401b610e2a565b906112566101ee610e4b92151590565b8254611232565b6101f1906111e9565b6020810192916101f5919061125d565b7ff0c57e16840df040f15088dc2f81fe391c3923bec73e23a9662efc9c229c6a0090816112ae6112a86105fd836111c4565b916111df565b906000926112bb846111e9565b6001600160401b03841614806113b4575b6001936112e86112db866111e9565b916001600160401b031690565b14908161138c575b155b9081611383575b5061137457611322908261131986611310876111e9565b9801978861121b565b611365576113bb565b61132b57505050565b6113596107d6927fc7f505b2f371ae2175ee4913f4499e1f2633a7b5936321eed1cdaeb6115181d294611246565b60405191829182611266565b61136f8487611246565b6113bb565b63f92ee8a960e01b8452600484fd5b159050386112f9565b90506112f261139a306105b1565b3b6113ab6113a788610699565b9190565b149190506112f0565b50816112cc565b6101f5906113c833611670565b6113e16000805160206116db8339815191529182610e34565b6113fd6113f46618de76816d8000610699565b6001830161117a565b600261141067016345785d8a0000610699565b910161117a565b6101f590611276565b6101ee60016000805160206116db8339815191525b0161056c565b6101ee60026000805160206116db833981519152611435565b6101f5906114606115a3565b6101f59060016000805160206116db8339815191526111a7565b6101f590611454565b6101f59061148f6115a3565b600061149a816106f2565b6001600160a01b0381166001600160a01b038416146114be5750506101f5906115e2565b631e4fbdf760e01b82526001600160a01b03166004820152602490fd5b6101f590611483565b6101ee906111be565b6101ee90546114e4565b61152d6101ee91611506600090565b507fa9b8ea93cd1a4e28b0276278267515f30a34f7de34d3bc6de92b1e97a9a6b70361103d565b6114ed565b906101f59161153f6115a3565b600092916000805160206116db83398151915261155b85610699565b828110156115915761158c906115868761111a60038601611580610760868a8c6106bc565b9061103d565b60010190565b61155b565b505050509050565b906101f591611532565b6115ab610fc5565b339081906001600160a01b0316036115c05750565b63118cdaa760e01b60009081526001600160a01b039091166004526024036000fd5b61162a6116247f9016d09d72d40fdae2fd8ceac6b6234c7706214fd39c1cd1e609a0528c1993006106348461161e83546001600160a01b031690565b92610e34565b916105b1565b907f8be0079c531659141344cd1fd0a4f28419497f9722a3daafe3b4186f6b6457e061165560405190565b600090a3565b6101f590611667611679565b6101f5906116a8565b6101f59061165b565b6116846105fd6116b1565b61168a57565b631afcd79f60e31b6000908152600490fd5b6101f59061148f611679565b6101f59061169c565b6101ee7ff0c57e16840df040f15088dc2f81fe391c3923bec73e23a9662efc9c229c6a006111c456fea9b8ea93cd1a4e28b0276278267515f30a34f7de34d3bc6de92b1e97a9a6b700a2646970667358221220fa66b25b493688b5749223a97b8597b527fe47bf9a52fab6d5d2142eb7479f8364736f6c634300081a0033",
  "linkReferences": {},
  "deployedLinkReferences": {}
}