{
  "_format": "hh-sol-artifact-1",
  "contractName": "ProxyAdmin",
  "sourceName": "@openzeppelin/contracts/proxy/transparent/ProxyAdmin.sol",
  "abi": [
    {
      "inputs": [
        {
          "internalType": "address",
          "name": "initialOwner",
          "type": "address"
        }
      ],
      "stateMutability": "nonpayable",
      "type": "constructor"
    },
    {
      "inputs": [
        {
          "internalType": "address",
          "name": "owner",
          "type": "address"
        }
      ],
      "name": "OwnableInvalidOwner",
      "type": "error"
    },
    {
      "inputs": [
        {
          "internalType": "address",
          "name": "account",
          "type": "address"
        }
      ],
      "name": "OwnableUnauthorizedAccount",
      "type": "error"
    },
    {
      "anonymous": false,
      "inputs": [
        {
          "indexed": true,
          "internalType": "address",
          "name": "previousOwner",
          "type": "address"
        },
        {
          "indexed": true,
          "internalType": "address",
          "name": "newOwner",
          "type": "address"
        }
      ],
      "name": "OwnershipTransferred",
      "type": "event"
    },
    {
      "inputs": [],
      "name": "UPGRADE_INTERFACE_VERSION",
      "outputs": [
        {
          "internalType": "string",
          "name": "",
          "type": "string"
        }
      ],
      "stateMutability": "view",
      "type": "function"
    },
    {
      "inputs": [],
      "name": "owner",
      "outputs": [
        {
          "internalType": "address",
          "name": "",
          "type": "address"
        }
      ],
      "stateMutability": "view",
      "type": "function"
    },
    {
      "inputs": [],
      "name": "renounceOwnership",
      "outputs": [],
      "stateMutability": "nonpayable",
      "type": "function"
    },
    {
      "inputs": [
        {
          "internalType": "address",
          "name": "newOwner",
          "type": "address"
        }
      ],
      "name": "transferOwnership",
      "outputs": [],
      "stateMutability": "nonpayable",
      "type": "function"
    },
    {
      "inputs": [
        {
          "internalType": "contract ITransparentUpgradeableProxy",
          "name": "proxy",
          "type": "address"
        },
        {
          "internalType": "address",
          "name": "implementation",
          "type": "address"
        },
        {
          "internalType": "bytes",
          "name": "data",
          "type": "bytes"
        }
      ],
      "name": "upgradeAndCall",
      "outputs": [],
      "stateMutability": "payable",
      "type": "function"
    }
  ],
  "bytecode": "0x60806040523461002a576100196100146100c2565b6100e0565b6040516105c561021f82396105c590f35b600080fd5b634e487b7160e01b600052604160045260246000fd5b90601f01601f191681019081106001600160401b0382111761006657604052565b61002f565b9061007f61007860405190565b9283610045565b565b6001600160a01b031690565b90565b6001600160a01b0381160361002a57565b9050519061007f82610090565b9060208282031261002a5761008d916100a1565b61008d6107e4803803806100d58161006b565b9283398101906100ae565b61007f90610112565b61008161008d61008d9290565b61008d906100e9565b6001600160a01b03909116815260200190565b600061011d816100f6565b6001600160a01b0381166001600160a01b0384161461014157505061007f906101c7565b631e4fbdf760e01b8252819061015a90600483016100ff565b0390fd5b61008d90610081565b61008d905461015e565b61008d90610081906001600160a01b031682565b61008d90610171565b61008d90610185565b906101a761008d6101c39261018e565b82546001600160a01b0319166001600160a01b03919091161790565b9055565b6101ed6101e76101d76000610167565b6101e2846000610197565b61018e565b9161018e565b907f8be0079c531659141344cd1fd0a4f28419497f9722a3daafe3b4186f6b6457e061021860405190565b600090a356fe6080604052600436101561001257600080fd5b60003560e01c8063715018a6146100625780638da5cb5b1461005d5780639623609d14610058578063ad3cb1cc146100535763f2fde38b0361007257610329565b6102ee565b61022d565b6100a9565b610077565b600091031261007257565b600080fd5b3461007257610087366004610067565b61008f610379565b604051005b0390f35b6001600160a01b031690565b90565b565b34610072576100b9366004610067565b6100946100ce6000546001600160a01b031690565b604051918291826001600160a01b03909116815260200190565b6001600160a01b0381165b0361007257565b905035906100a7826100e8565b6001600160a01b0381166100f3565b905035906100a782610107565b634e487b7160e01b600052604160045260246000fd5b90601f01601f1916810190811067ffffffffffffffff82111761015b57604052565b610123565b906100a761016d60405190565b9283610139565b67ffffffffffffffff811161015b57602090601f01601f19160190565b0190565b90826000939282370152565b909291926101b66101b182610174565b610160565b9381855281830111610072576100a7916020850190610195565b9080601f83011215610072578160206100a4933591016101a1565b916060838303126100725761020082846100fa565b9261020e8360208301610116565b92604082013567ffffffffffffffff8111610072576100a492016101d0565b61008f61023b3660046101eb565b9161045a565b9061024e6101b183610174565b918252565b61025d6005610241565b640352e302e360dc1b602082015290565b6100a4610253565b6100a461026e565b6100a4610276565b60005b8381106102995750506000910152565b8181015183820152602001610289565b6102ca6102d3602093610191936102be815190565b80835293849260200190565b95869101610286565b601f01601f191690565b60208082526100a4929101906102a9565b34610072576102fe366004610067565b61009461030961027e565b604051918291826102dd565b90602082820312610072576100a491610116565b346100725761008f61033c366004610315565b6104bd565b6103496104c6565b6100a7610367565b6100986100a46100a49290565b6100a490610351565b6100a7610374600061035e565b610530565b6100a7610341565b906100a7929161038f6104c6565b6103e9565b6100a490610098906001600160a01b031682565b6100a490610394565b6100a4906103a8565b6001600160a01b0390911681526100a491604082019160208184039101526102a9565b6040513d6000823e3d90fd5b6103f2906103b1565b90634f1ef28691803b156100725761041f60009361042a61041260405190565b9687958694859460e01b90565b8452600484016103ba565b039134905af180156104555761043d5750565b6100a790600061044d8183610139565b810190610067565b6103dd565b906100a79291610381565b6100a7906104716104c6565b600061047c8161035e565b6001600160a01b0381166001600160a01b038416146104a05750506100a790610530565b631e4fbdf760e01b82526001600160a01b03166004820152602490fd5b6100a790610465565b60005433906001600160a01b03168190036104de5750565b63118cdaa760e01b60009081526001600160a01b039091166004526024036000fd5b906105106100a461052c926103b1565b82546001600160a01b0319166001600160a01b03919091161790565b9055565b61055e6105586105486000546001600160a01b031690565b610553846000610500565b6103b1565b916103b1565b907f8be0079c531659141344cd1fd0a4f28419497f9722a3daafe3b4186f6b6457e061058960405190565b600090a356fea264697066735822122022bb4df79ccf6c176b8b2fc9c78d940ef650add129079421a5b4de0f5440e61a64736f6c634300081a0033",
  "linkReferences": {},
  "deployedLinkReferences": {}
}